{
  "contractName": "Distribution",
  "abi": [
    {
      "inputs": [],
      "stateMutability": "nonpayable",
      "type": "constructor"
    },
    {
      "inputs": [],
      "name": "balance",
      "outputs": [
        {
          "internalType": "uint256",
          "name": "",
          "type": "uint256"
        }
      ],
      "stateMutability": "view",
      "type": "function",
      "constant": true
    },
    {
      "inputs": [],
      "name": "projectAddress",
      "outputs": [
        {
          "internalType": "contract Project",
          "name": "",
          "type": "address"
        }
      ],
      "stateMutability": "view",
      "type": "function",
      "constant": true
    },
    {
      "inputs": [
        {
          "internalType": "address",
          "name": "_project",
          "type": "address"
        }
      ],
      "name": "setProject",
      "outputs": [],
      "stateMutability": "nonpayable",
      "type": "function"
    },
    {
      "inputs": [
        {
          "internalType": "address",
          "name": "_reciever",
          "type": "address"
        }
      ],
      "name": "distribute",
      "outputs": [],
      "stateMutability": "payable",
      "type": "function",
      "payable": true
    }
  ],
  "bytecode": "0x608060405234801561001057600080fd5b50336000806101000a81548173ffffffffffffffffffffffffffffffffffffffff021916908373ffffffffffffffffffffffffffffffffffffffff160217905550610a47806100606000396000f3fe60806040526004361061003f5760003560e01c80633cf96af11461004457806363453ae11461006f578063b69ef8a81461008b578063fb108ea6146100b6575b600080fd5b34801561005057600080fd5b506100596100df565b604051610066919061079e565b60405180910390f35b61008960048036038101906100849190610663565b610105565b005b34801561009757600080fd5b506100a061027e565b6040516100ad9190610819565b60405180910390f35b3480156100c257600080fd5b506100dd60048036038101906100d89190610663565b610284565b005b600160009054906101000a900473ffffffffffffffffffffffffffffffffffffffff1681565b60008054906101000a900473ffffffffffffffffffffffffffffffffffffffff1673ffffffffffffffffffffffffffffffffffffffff163373ffffffffffffffffffffffffffffffffffffffff1614610193576040517f08c379a000000000000000000000000000000000000000000000000000000000815260040161018a906107d9565b60405180910390fd5b600034116101d6576040517f08c379a00000000000000000000000000000000000000000000000000000000081526004016101cd906107f9565b60405180910390fd5b60025434111561021b576040517f08c379a0000000000000000000000000000000000000000000000000000000008152600401610212906107f9565b60405180910390fd5b346002600082825461022d9190610845565b925050819055508073ffffffffffffffffffffffffffffffffffffffff166108fc349081150290604051600060405180830381858888f1935050505015801561027a573d6000803e3d6000fd5b5050565b60025481565b60008054906101000a900473ffffffffffffffffffffffffffffffffffffffff1673ffffffffffffffffffffffffffffffffffffffff163373ffffffffffffffffffffffffffffffffffffffff1614610312576040517f08c379a0000000000000000000000000000000000000000000000000000000008152600401610309906107d9565b60405180910390fd5b80600160006101000a81548173ffffffffffffffffffffffffffffffffffffffff021916908373ffffffffffffffffffffffffffffffffffffffff16021790555060001515600160009054906101000a900473ffffffffffffffffffffffffffffffffffffffff1673ffffffffffffffffffffffffffffffffffffffff1663753899e96040518163ffffffff1660e01b815260040160206040518083038186803b1580156103bf57600080fd5b505afa1580156103d3573d6000803e3d6000fd5b505050506040513d601f19601f820116820180604052508101906103f791906106bd565b151514610439576040517f08c379a0000000000000000000000000000000000000000000000000000000008152600401610430906107b9565b60405180910390fd5b60008054906101000a900473ffffffffffffffffffffffffffffffffffffffff1673ffffffffffffffffffffffffffffffffffffffff16600160009054906101000a900473ffffffffffffffffffffffffffffffffffffffff1673ffffffffffffffffffffffffffffffffffffffff16638da5cb5b6040518163ffffffff1660e01b815260040160206040518083038186803b1580156104d857600080fd5b505afa1580156104ec573d6000803e3d6000fd5b505050506040513d601f19601f820116820180604052508101906105109190610690565b73ffffffffffffffffffffffffffffffffffffffff1614610566576040517f08c379a000000000000000000000000000000000000000000000000000000000815260040161055d906107d9565b60405180910390fd5b600160009054906101000a900473ffffffffffffffffffffffffffffffffffffffff1673ffffffffffffffffffffffffffffffffffffffff16632ddbd13a6040518163ffffffff1660e01b815260040160206040518083038186803b1580156105ce57600080fd5b505afa1580156105e2573d6000803e3d6000fd5b505050506040513d601f19601f8201168201806040525081019061060691906106ea565b60028190555050565b60008135905061061e816109cc565b92915050565b600081519050610633816109cc565b92915050565b600081519050610648816109e3565b92915050565b60008151905061065d816109fa565b92915050565b60006020828403121561067957610678610926565b5b60006106878482850161060f565b91505092915050565b6000602082840312156106a6576106a5610926565b5b60006106b484828501610624565b91505092915050565b6000602082840312156106d3576106d2610926565b5b60006106e184828501610639565b91505092915050565b600060208284031215610700576106ff610926565b5b600061070e8482850161064e565b91505092915050565b610720816108c1565b82525050565b6000610733603783610834565b915061073e8261092b565b604082019050919050565b6000610756600d83610834565b91506107618261097a565b602082019050919050565b6000610779600d83610834565b9150610784826109a3565b602082019050919050565b610798816108b7565b82525050565b60006020820190506107b36000830184610717565b92915050565b600060208201905081810360008301526107d281610726565b9050919050565b600060208201905081810360008301526107f281610749565b9050919050565b600060208201905081810360008301526108128161076c565b9050919050565b600060208201905061082e600083018461078f565b92915050565b600082825260208201905092915050565b6000610850826108b7565b915061085b836108b7565b92508282101561086e5761086d6108f7565b5b828203905092915050565b600061088482610897565b9050919050565b60008115159050919050565b600073ffffffffffffffffffffffffffffffffffffffff82169050919050565b6000819050919050565b60006108cc826108d3565b9050919050565b60006108de826108e5565b9050919050565b60006108f082610897565b9050919050565b7f4e487b7100000000000000000000000000000000000000000000000000000000600052601160045260246000fd5b600080fd5b7f556e617661696c61626c652050726f6a6563743a20506c6561736520656e642060008201527f7468652070726f6a656374206265666f726568616e642e000000000000000000602082015250565b7f4163636573732044656e69656400000000000000000000000000000000000000600082015250565b7f496e76616c69642056616c756500000000000000000000000000000000000000600082015250565b6109d581610879565b81146109e057600080fd5b50565b6109ec8161088b565b81146109f757600080fd5b50565b610a03816108b7565b8114610a0e57600080fd5b5056fea2646970667358221220dd7f5ccadaf9945e94bfd6eab586e81286da312832ab748073a01c74816768db64736f6c63430008070033",
  "immutableReferences": {},
  "source": "// SPDX-License-Identifier: None\r\n\r\npragma solidity >=0.7.0 <0.9.0;\r\nimport \"./Project.sol\";\r\n\r\ncontract Distribution{\r\n    //structure\r\n\r\n\r\n    //variable\r\n    address owner;\r\n    Project public projectAddress;\r\n    uint public balance;\r\n\r\n    //mapping\r\n\r\n\r\n    //event\r\n    \r\n\r\n    //modifier\r\n    modifier onlyOwner{\r\n        require(msg.sender==owner,\"Access Denied\"); //then, excute following functions\r\n        _;\r\n    }\r\n\r\n    //constructor\r\n    constructor() {\r\n        owner=msg.sender;\r\n    }\r\n\r\n    //functions\r\n    //set\r\n    function setProject(address _project) public onlyOwner{\r\n        projectAddress=Project(_project);\r\n        require(projectAddress.alive()==false,\"Unavailable Project: Please end the project beforehand.\");\r\n        require(projectAddress.owner()==owner,\"Access Denied\");\r\n        balance=projectAddress.total();    \r\n    }\r\n\r\n    //distribute\r\n    function distribute(address _reciever) public payable onlyOwner{\r\n        //requires\r\n        require(msg.value>0,\"Invalid Value\");\r\n        require(msg.value<=balance,\"Invalid Value\");\r\n\r\n        balance-=msg.value;\r\n        payable(_reciever).transfer(msg.value);\r\n    }\r\n\r\n}",
  "sourcePath": "C:\\Users\\joons\\Desktop\\SOTY\\truffle\\contracts\\Distribution.sol",
  "compiler": {
    "name": "solc",
    "version": "0.8.7+commit.e28d00a7.Emscripten.clang"
  },
  "schemaVersion": "3.4.7",
  "updatedAt": "2022-04-20T09:05:37.726Z",
  "networkType": "ethereum",
  "devdoc": {
    "kind": "dev",
    "methods": {},
    "version": 1
  },
  "userdoc": {
    "kind": "user",
    "methods": {},
    "version": 1
  }
}