{
  "contractName": "Donation",
  "abi": [
    {
      "inputs": [],
      "stateMutability": "nonpayable",
      "type": "constructor"
    },
    {
      "inputs": [
        {
          "internalType": "address",
          "name": "_project",
          "type": "address"
        }
      ],
      "name": "Donate",
      "outputs": [],
      "stateMutability": "payable",
      "type": "function"
    },
    {
      "inputs": [],
      "name": "getTotalDonation",
      "outputs": [
        {
          "internalType": "uint256",
          "name": "",
          "type": "uint256"
        }
      ],
      "stateMutability": "view",
      "type": "function"
    },
    {
      "inputs": [
        {
          "internalType": "address",
          "name": "_project",
          "type": "address"
        }
      ],
      "name": "getDonation",
      "outputs": [
        {
          "internalType": "uint256",
          "name": "",
          "type": "uint256"
        }
      ],
      "stateMutability": "view",
      "type": "function"
    }
  ],
  "bytecode": "0x6080604052600060015534801561001557600080fd5b50336000806101000a81548173ffffffffffffffffffffffffffffffffffffffff021916908373ffffffffffffffffffffffffffffffffffffffff1602179055506108f1806100656000396000f3fe6080604052600436106100345760003560e01c8063410a1d3214610039578063505c8cb91461007657806356e23eb114610092575b600080fd5b34801561004557600080fd5b50610060600480360381019061005b91906105b5565b6100bd565b60405161006d9190610714565b60405180910390f35b610090600480360381019061008b91906105b5565b61019b565b005b34801561009e57600080fd5b506100a76104dd565b6040516100b49190610714565b60405180910390f35b60008060009054906101000a900473ffffffffffffffffffffffffffffffffffffffff1673ffffffffffffffffffffffffffffffffffffffff163373ffffffffffffffffffffffffffffffffffffffff161461014e576040517f08c379a0000000000000000000000000000000000000000000000000000000008152600401610145906106d4565b60405180910390fd5b6000829050600260008273ffffffffffffffffffffffffffffffffffffffff1673ffffffffffffffffffffffffffffffffffffffff16815260200190815260200160002054915050919050565b60008054906101000a900473ffffffffffffffffffffffffffffffffffffffff1673ffffffffffffffffffffffffffffffffffffffff163373ffffffffffffffffffffffffffffffffffffffff1614610229576040517f08c379a0000000000000000000000000000000000000000000000000000000008152600401610220906106d4565b60405180910390fd5b6000341161026c576040517f08c379a0000000000000000000000000000000000000000000000000000000008152600401610263906106f4565b60405180910390fd5b6000819050600115158173ffffffffffffffffffffffffffffffffffffffff1663753899e96040518163ffffffff1660e01b815260040160206040518083038186803b1580156102bb57600080fd5b505afa1580156102cf573d6000803e3d6000fd5b505050506040513d601f19601f820116820180604052508101906102f3919061060f565b151514610335576040517f08c379a000000000000000000000000000000000000000000000000000000000815260040161032c906106b4565b60405180910390fd5b60008173ffffffffffffffffffffffffffffffffffffffff16638da5cb5b6040518163ffffffff1660e01b815260040160206040518083038186803b15801561037d57600080fd5b505afa158015610391573d6000803e3d6000fd5b505050506040513d601f19601f820116820180604052508101906103b591906105e2565b905034600260008473ffffffffffffffffffffffffffffffffffffffff1673ffffffffffffffffffffffffffffffffffffffff16815260200190815260200160002060008282546104069190610740565b925050819055508173ffffffffffffffffffffffffffffffffffffffff1663f14faf6f346040518263ffffffff1660e01b81526004016104469190610714565b600060405180830381600087803b15801561046057600080fd5b505af1158015610474573d6000803e3d6000fd5b50505050346001600082825461048a9190610740565b925050819055508073ffffffffffffffffffffffffffffffffffffffff166108fc349081150290604051600060405180830381858888f193505050501580156104d7573d6000803e3d6000fd5b50505050565b60008060009054906101000a900473ffffffffffffffffffffffffffffffffffffffff1673ffffffffffffffffffffffffffffffffffffffff163373ffffffffffffffffffffffffffffffffffffffff161461056e576040517f08c379a0000000000000000000000000000000000000000000000000000000008152600401610565906106d4565b60405180910390fd5b600154905090565b6000813590506105858161088d565b92915050565b60008151905061059a8161088d565b92915050565b6000815190506105af816108a4565b92915050565b6000602082840312156105cb576105ca61080d565b5b60006105d984828501610576565b91505092915050565b6000602082840312156105f8576105f761080d565b5b60006106068482850161058b565b91505092915050565b6000602082840312156106255761062461080d565b5b6000610633848285016105a0565b91505092915050565b6000610649601e8361072f565b915061065482610812565b602082019050919050565b600061066c600d8361072f565b91506106778261083b565b602082019050919050565b600061068f600d8361072f565b915061069a82610864565b602082019050919050565b6106ae816107d4565b82525050565b600060208201905081810360008301526106cd8161063c565b9050919050565b600060208201905081810360008301526106ed8161065f565b9050919050565b6000602082019050818103600083015261070d81610682565b9050919050565b600060208201905061072960008301846106a5565b92915050565b600082825260208201905092915050565b600061074b826107d4565b9150610756836107d4565b9250827fffffffffffffffffffffffffffffffffffffffffffffffffffffffffffffffff0382111561078b5761078a6107de565b5b828201905092915050565b60006107a1826107b4565b9050919050565b60008115159050919050565b600073ffffffffffffffffffffffffffffffffffffffff82169050919050565b6000819050919050565b7f4e487b7100000000000000000000000000000000000000000000000000000000600052601160045260246000fd5b600080fd5b7f546869732070726f6a656374206973206e6f7420617661696c61626c652e0000600082015250565b7f4163636573732044656e69656400000000000000000000000000000000000000600082015250565b7f496e76616c69642056616c756500000000000000000000000000000000000000600082015250565b61089681610796565b81146108a157600080fd5b50565b6108ad816107a8565b81146108b857600080fd5b5056fea264697066735822122090e6ffd50471aea30a322f5ccb514b99cbb7de30ef4f5ddb317a1f4db1b6197864736f6c63430008070033",
  "immutableReferences": {},
  "source": "// SPDX-License-Identifier: None\r\n\r\npragma solidity >=0.7.0 <0.9.0;\r\nimport \"./Project.sol\";\r\ncontract Donation{\r\n    //structure\r\n\r\n\r\n    //variable\r\n    address owner;\r\n    uint private totalDonation=0;\r\n\r\n    //mapping\r\n    mapping (Project=>uint) private donationList;\r\n\r\n\r\n    //event\r\n    \r\n\r\n    //modifier\r\n    modifier onlyOwner{\r\n        require(msg.sender==owner,\"Access Denied\"); //then, excute functions\r\n        _;\r\n    }\r\n\r\n    //constructor\r\n    constructor() {\r\n        owner=msg.sender;\r\n    }\r\n\r\n    //functions\r\n    //donate\r\n    function Donate(address _project) public payable onlyOwner{\r\n        //requires\r\n        require(msg.value>0,\"Invalid Value\");\r\n        Project projectAddress=Project(_project);\r\n        require(projectAddress.alive()==true,\"This project is not available.\");\r\n        address reciever=projectAddress.owner();\r\n\r\n        donationList[projectAddress]+=msg.value;\r\n        projectAddress.donate(msg.value);\r\n        totalDonation+=msg.value;\r\n        payable(reciever).transfer(msg.value);\r\n\r\n    }\r\n\r\n    //get Total Donation\r\n    function getTotalDonation() public view onlyOwner returns(uint){\r\n        //requires\r\n        return totalDonation;\r\n    }\r\n\r\n    //get each Donation\r\n    function getDonation(address _project) public view onlyOwner returns(uint){\r\n        Project projectAddress=Project(_project);\r\n        return donationList[projectAddress];\r\n    }\r\n}",
  "sourcePath": "C:\\Users\\joons\\Desktop\\SOTY\\truffle\\contracts\\Donation.sol",
  "compiler": {
    "name": "solc",
    "version": "0.8.7+commit.e28d00a7.Emscripten.clang"
  },
  "schemaVersion": "3.4.7",
  "updatedAt": "2022-04-30T02:07:30.098Z",
  "devdoc": {
    "kind": "dev",
    "methods": {},
    "version": 1
  },
  "userdoc": {
    "kind": "user",
    "methods": {},
    "version": 1
  }
}