{
  "contractName": "Fundraise",
  "abi": [
    {
      "inputs": [],
      "stateMutability": "nonpayable",
      "type": "constructor"
    },
    {
      "inputs": [],
      "name": "owner",
      "outputs": [
        {
          "internalType": "address",
          "name": "",
          "type": "address"
        }
      ],
      "stateMutability": "view",
      "type": "function"
    },
    {
      "inputs": [
        {
          "internalType": "contract Project",
          "name": "",
          "type": "address"
        }
      ],
      "name": "projectList",
      "outputs": [
        {
          "internalType": "bool",
          "name": "",
          "type": "bool"
        }
      ],
      "stateMutability": "view",
      "type": "function"
    },
    {
      "inputs": [
        {
          "internalType": "uint256",
          "name": "_target",
          "type": "uint256"
        }
      ],
      "name": "makeProject",
      "outputs": [
        {
          "internalType": "contract Project",
          "name": "",
          "type": "address"
        }
      ],
      "stateMutability": "nonpayable",
      "type": "function"
    },
    {
      "inputs": [
        {
          "internalType": "contract Project",
          "name": "_project",
          "type": "address"
        }
      ],
      "name": "endProject",
      "outputs": [],
      "stateMutability": "nonpayable",
      "type": "function"
    },
    {
      "inputs": [
        {
          "internalType": "contract Project",
          "name": "_project",
          "type": "address"
        },
        {
          "internalType": "address",
          "name": "_reciever",
          "type": "address"
        }
      ],
      "name": "distribute",
      "outputs": [],
      "stateMutability": "payable",
      "type": "function"
    }
  ],
  "bytecode": "0x608060405234801561001057600080fd5b50336000806101000a81548173ffffffffffffffffffffffffffffffffffffffff021916908373ffffffffffffffffffffffffffffffffffffffff1602179055506115db806100606000396000f3fe60806040526004361061004a5760003560e01c80636c8097851461004f5780638da5cb5b1461008c578063a18cd06c146100b7578063a6c7a77c146100d3578063cc6a41b314610110575b600080fd5b34801561005b57600080fd5b506100766004803603810190610071919061080e565b610139565b6040516100839190610943565b60405180910390f35b34801561009857600080fd5b506100a16102cd565b6040516100ae919061090d565b60405180910390f35b6100d160048036038101906100cc91906107ce565b6102f1565b005b3480156100df57600080fd5b506100fa60048036038101906100f591906107a1565b61053e565b6040516101079190610928565b60405180910390f35b34801561011c57600080fd5b50610137600480360381019061013291906107a1565b61055e565b005b60008060009054906101000a900473ffffffffffffffffffffffffffffffffffffffff1673ffffffffffffffffffffffffffffffffffffffff163373ffffffffffffffffffffffffffffffffffffffff16146101ca576040517f08c379a00000000000000000000000000000000000000000000000000000000081526004016101c19061099e565b60405180910390fd5b6000336040516101d990610740565b6101e3919061090d565b604051809103906000f0801580156101ff573d6000803e3d6000fd5b5090508073ffffffffffffffffffffffffffffffffffffffff1663f62bf2de846040518263ffffffff1660e01b815260040161023b91906109be565b600060405180830381600087803b15801561025557600080fd5b505af1158015610269573d6000803e3d6000fd5b5050505060018060008373ffffffffffffffffffffffffffffffffffffffff1673ffffffffffffffffffffffffffffffffffffffff16815260200190815260200160002060006101000a81548160ff02191690831515021790555080915050919050565b60008054906101000a900473ffffffffffffffffffffffffffffffffffffffff1681565b60008054906101000a900473ffffffffffffffffffffffffffffffffffffffff1673ffffffffffffffffffffffffffffffffffffffff163373ffffffffffffffffffffffffffffffffffffffff161461037f576040517f08c379a00000000000000000000000000000000000000000000000000000000081526004016103769061099e565b60405180910390fd5b600034116103c2576040517f08c379a00000000000000000000000000000000000000000000000000000000081526004016103b99061097e565b60405180910390fd5b60008290508073ffffffffffffffffffffffffffffffffffffffff16632ddbd13a6040518163ffffffff1660e01b815260040160206040518083038186803b15801561040d57600080fd5b505afa158015610421573d6000803e3d6000fd5b505050506040513d601f19601f82011682018060405250810190610445919061083b565b341115610487576040517f08c379a000000000000000000000000000000000000000000000000000000000815260040161047e9061097e565b60405180910390fd5b8173ffffffffffffffffffffffffffffffffffffffff166108fc349081150290604051600060405180830381858888f193505050501580156104cd573d6000803e3d6000fd5b508073ffffffffffffffffffffffffffffffffffffffff166391c05b0b346040518263ffffffff1660e01b815260040161050791906109be565b600060405180830381600087803b15801561052157600080fd5b505af1158015610535573d6000803e3d6000fd5b50505050505050565b60016020528060005260406000206000915054906101000a900460ff1681565b60008054906101000a900473ffffffffffffffffffffffffffffffffffffffff1673ffffffffffffffffffffffffffffffffffffffff163373ffffffffffffffffffffffffffffffffffffffff16146105ec576040517f08c379a00000000000000000000000000000000000000000000000000000000081526004016105e39061099e565b60405180910390fd5b600081905060011515600160008373ffffffffffffffffffffffffffffffffffffffff1673ffffffffffffffffffffffffffffffffffffffff16815260200190815260200160002060009054906101000a900460ff16151514610684576040517f08c379a000000000000000000000000000000000000000000000000000000000815260040161067b9061095e565b60405180910390fd5b8073ffffffffffffffffffffffffffffffffffffffff1663c39664096040518163ffffffff1660e01b8152600401600060405180830381600087803b1580156106cc57600080fd5b505af11580156106e0573d6000803e3d6000fd5b505050506000600160008373ffffffffffffffffffffffffffffffffffffffff1673ffffffffffffffffffffffffffffffffffffffff16815260200190815260200160002060006101000a81548160ff0219169083151502179055505050565b610a6680610b4083390190565b60008135905061075c81610afa565b92915050565b60008135905061077181610b11565b92915050565b60008135905061078681610b28565b92915050565b60008151905061079b81610b28565b92915050565b6000602082840312156107b7576107b6610a7a565b5b60006107c584828501610762565b91505092915050565b600080604083850312156107e5576107e4610a7a565b5b60006107f385828601610762565b92505060206108048582860161074d565b9150509250929050565b60006020828403121561082457610823610a7a565b5b600061083284828501610777565b91505092915050565b60006020828403121561085157610850610a7a565b5b600061085f8482850161078c565b91505092915050565b610871816109ea565b82525050565b610880816109fc565b82525050565b61088f81610a44565b82525050565b60006108a26010836109d9565b91506108ad82610a7f565b602082019050919050565b60006108c5600d836109d9565b91506108d082610aa8565b602082019050919050565b60006108e8600e836109d9565b91506108f382610ad1565b602082019050919050565b61090781610a3a565b82525050565b60006020820190506109226000830184610868565b92915050565b600060208201905061093d6000830184610877565b92915050565b60006020820190506109586000830184610886565b92915050565b6000602082019050818103600083015261097781610895565b9050919050565b60006020820190508181036000830152610997816108b8565b9050919050565b600060208201905081810360008301526109b7816108db565b9050919050565b60006020820190506109d360008301846108fe565b92915050565b600082825260208201905092915050565b60006109f582610a1a565b9050919050565b60008115159050919050565b6000610a13826109ea565b9050919050565b600073ffffffffffffffffffffffffffffffffffffffff82169050919050565b6000819050919050565b6000610a4f82610a56565b9050919050565b6000610a6182610a68565b9050919050565b6000610a7382610a1a565b9050919050565b600080fd5b7f496e76616c69642046756e6374696f6e00000000000000000000000000000000600082015250565b7f496e76616c69642056616c756500000000000000000000000000000000000000600082015250565b7f4163636573732044656e69656432000000000000000000000000000000000000600082015250565b610b03816109ea565b8114610b0e57600080fd5b50565b610b1a81610a08565b8114610b2557600080fd5b50565b610b3181610a3a565b8114610b3c57600080fd5b5056fe60806040526000600460006101000a81548160ff02191690831515021790555034801561002b57600080fd5b50604051610a66380380610a66833981810160405281019061004d91906100e9565b336000806101000a81548173ffffffffffffffffffffffffffffffffffffffff021916908373ffffffffffffffffffffffffffffffffffffffff16021790555080600160006101000a81548173ffffffffffffffffffffffffffffffffffffffff021916908373ffffffffffffffffffffffffffffffffffffffff16021790555050610164565b6000815190506100e38161014d565b92915050565b6000602082840312156100ff576100fe610148565b5b600061010d848285016100d4565b91505092915050565b600061012182610128565b9050919050565b600073ffffffffffffffffffffffffffffffffffffffff82169050919050565b600080fd5b61015681610116565b811461016157600080fd5b50565b6108f3806101736000396000f3fe608060405234801561001057600080fd5b50600436106100935760003560e01c806391c05b0b1161006657806391c05b0b14610110578063c39664091461012c578063d4b8399214610136578063f14faf6f14610154578063f62bf2de1461017057610093565b80632ddbd13a14610098578063521eb273146100b6578063753899e9146100d45780638da5cb5b146100f2575b600080fd5b6100a061018c565b6040516100ad91906106d0565b60405180910390f35b6100be610192565b6040516100cb919061061a565b60405180910390f35b6100dc6101b8565b6040516100e99190610635565b60405180910390f35b6100fa6101cb565b604051610107919061061a565b60405180910390f35b61012a60048036038101906101259190610534565b6101ef565b005b610134610299565b005b61013e6103a9565b60405161014b91906106d0565b60405180910390f35b61016e60048036038101906101699190610534565b6103af565b005b61018a60048036038101906101859190610534565b6103cb565b005b60025481565b600160009054906101000a900473ffffffffffffffffffffffffffffffffffffffff1681565b600460009054906101000a900460ff1681565b60008054906101000a900473ffffffffffffffffffffffffffffffffffffffff1681565b60008054906101000a900473ffffffffffffffffffffffffffffffffffffffff1673ffffffffffffffffffffffffffffffffffffffff163373ffffffffffffffffffffffffffffffffffffffff161461027d576040517f08c379a000000000000000000000000000000000000000000000000000000000815260040161027490610690565b60405180910390fd5b806002600082825461028f9190610752565b9250508190555050565b60008054906101000a900473ffffffffffffffffffffffffffffffffffffffff1673ffffffffffffffffffffffffffffffffffffffff163373ffffffffffffffffffffffffffffffffffffffff1614610327576040517f08c379a000000000000000000000000000000000000000000000000000000000815260040161031e90610690565b60405180910390fd5b60011515600460009054906101000a900460ff1615151461037d576040517f08c379a000000000000000000000000000000000000000000000000000000000815260040161037490610650565b60405180910390fd5b600460009054906101000a900460ff1615600460006101000a81548160ff021916908315150217905550565b60035481565b80600260008282546103c191906106fc565b9250508190555050565b60008054906101000a900473ffffffffffffffffffffffffffffffffffffffff1673ffffffffffffffffffffffffffffffffffffffff163373ffffffffffffffffffffffffffffffffffffffff1614610459576040517f08c379a000000000000000000000000000000000000000000000000000000000815260040161045090610690565b60405180910390fd5b60001515600460009054906101000a900460ff161515146104af576040517f08c379a00000000000000000000000000000000000000000000000000000000081526004016104a690610670565b60405180910390fd5b600081116104f2576040517f08c379a00000000000000000000000000000000000000000000000000000000081526004016104e9906106b0565b60405180910390fd5b6000600281905550806003819055506001600460006101000a81548160ff02191690831515021790555050565b60008135905061052e816108a6565b92915050565b60006020828403121561054a576105496107fd565b5b60006105588482850161051f565b91505092915050565b61056a81610786565b82525050565b61057981610798565b82525050565b600061058c6019836106eb565b915061059782610802565b602082019050919050565b60006105af6018836106eb565b91506105ba8261082b565b602082019050919050565b60006105d2600e836106eb565b91506105dd82610854565b602082019050919050565b60006105f56012836106eb565b91506106008261087d565b602082019050919050565b610614816107c4565b82525050565b600060208201905061062f6000830184610561565b92915050565b600060208201905061064a6000830184610570565b92915050565b600060208201905081810360008301526106698161057f565b9050919050565b60006020820190508181036000830152610689816105a2565b9050919050565b600060208201905081810360008301526106a9816105c5565b9050919050565b600060208201905081810360008301526106c9816105e8565b9050919050565b60006020820190506106e5600083018461060b565b92915050565b600082825260208201905092915050565b6000610707826107c4565b9150610712836107c4565b9250827fffffffffffffffffffffffffffffffffffffffffffffffffffffffffffffffff03821115610747576107466107ce565b5b828201905092915050565b600061075d826107c4565b9150610768836107c4565b92508282101561077b5761077a6107ce565b5b828203905092915050565b6000610791826107a4565b9050919050565b60008115159050919050565b600073ffffffffffffffffffffffffffffffffffffffff82169050919050565b6000819050919050565b7f4e487b7100000000000000000000000000000000000000000000000000000000600052601160045260246000fd5b600080fd5b7f416c72656164792066696e69736865642070726f6a6563742e00000000000000600082015250565b7f416c726561647920737461727465642070726f6a6563742e0000000000000000600082015250565b7f4163636573732044656e69656431000000000000000000000000000000000000600082015250565b7f54617267657420697320746f6f206c6f772e0000000000000000000000000000600082015250565b6108af816107c4565b81146108ba57600080fd5b5056fea26469706673582212200b815d4d8018fe4d1835a1d0554b8b9acf102c62d24e2ae0857a0b52993ed5a464736f6c63430008070033a26469706673582212208e04d1bce2b420cbf7940be4d282a6d7ba418b57274c40d1310d61d841ca3ccf64736f6c63430008070033",
  "immutableReferences": {},
  "source": "// SPDX-License-Identifier: None\r\n\r\npragma solidity >=0.7.0 <0.9.0;\r\nimport \"./Project.sol\";\r\n\r\ncontract Fundraise{\r\n    //structure\r\n    \r\n\r\n    //variables\r\n    address public owner;\r\n\r\n    //mapping\r\n    mapping(Project=>bool) public projectList;\r\n\r\n    //event\r\n    \r\n\r\n    //modifier\r\n    modifier onlyOwner{\r\n        require(msg.sender==owner,\"Access Denied2\"); //then, excute functions\r\n        _;\r\n    }\r\n\r\n    //constructor\r\n    constructor(){\r\n        owner=msg.sender;\r\n    }\r\n\r\n    //functions\r\n    //start project\r\n    function makeProject(uint _target) public  onlyOwner returns(Project){\r\n        //requires\r\n\r\n\r\n        Project newProject = new Project(msg.sender);\r\n        newProject.startProject(_target);\r\n        projectList[newProject]=true;\r\n        return newProject;\r\n    }\r\n    \r\n    //end project\r\n    function endProject(Project _project) public onlyOwner{\r\n        Project projectAddress=Project(_project);\r\n\r\n        //requires\r\n        require(projectList[projectAddress]==true,\"Invalid Function\");\r\n        projectAddress.endProject();\r\n        projectList[projectAddress]=false;\r\n    }\r\n    \r\n    //distribution\r\n    function distribute(Project _project,address _reciever) public payable onlyOwner{\r\n        //requires\r\n        require(msg.value>0,\"Invalid Value\");\r\n\r\n        Project projectAddress=Project(_project);\r\n        require(msg.value<=projectAddress.total(),\"Invalid Value\");\r\n\r\n        payable(_reciever).transfer(msg.value);\r\n        projectAddress.distribute(msg.value);\r\n    }\r\n}",
  "sourcePath": "C:\\Users\\joons\\Desktop\\SOTY\\truffle\\contracts\\Fundraise.sol",
  "compiler": {
    "name": "solc",
    "version": "0.8.7+commit.e28d00a7.Emscripten.clang"
  },
  "schemaVersion": "3.4.7",
  "updatedAt": "2022-05-04T02:56:31.785Z",
  "devdoc": {
    "kind": "dev",
    "methods": {},
    "version": 1
  },
  "userdoc": {
    "kind": "user",
    "methods": {},
    "version": 1
  }
}