{
  "contractName": "Project",
  "abi": [
    {
      "inputs": [
        {
          "internalType": "address",
          "name": "_wallet",
          "type": "address"
        }
      ],
      "stateMutability": "nonpayable",
      "type": "constructor"
    },
    {
      "inputs": [],
      "name": "alive",
      "outputs": [
        {
          "internalType": "bool",
          "name": "",
          "type": "bool"
        }
      ],
      "stateMutability": "view",
      "type": "function"
    },
    {
      "inputs": [],
      "name": "owner",
      "outputs": [
        {
          "internalType": "address",
          "name": "",
          "type": "address"
        }
      ],
      "stateMutability": "view",
      "type": "function"
    },
    {
      "inputs": [],
      "name": "target",
      "outputs": [
        {
          "internalType": "uint256",
          "name": "",
          "type": "uint256"
        }
      ],
      "stateMutability": "view",
      "type": "function"
    },
    {
      "inputs": [],
      "name": "total",
      "outputs": [
        {
          "internalType": "uint256",
          "name": "",
          "type": "uint256"
        }
      ],
      "stateMutability": "view",
      "type": "function"
    },
    {
      "inputs": [],
      "name": "wallet",
      "outputs": [
        {
          "internalType": "address",
          "name": "",
          "type": "address"
        }
      ],
      "stateMutability": "view",
      "type": "function"
    },
    {
      "inputs": [
        {
          "internalType": "uint256",
          "name": "_target",
          "type": "uint256"
        }
      ],
      "name": "startProject",
      "outputs": [],
      "stateMutability": "nonpayable",
      "type": "function"
    },
    {
      "inputs": [],
      "name": "endProject",
      "outputs": [],
      "stateMutability": "nonpayable",
      "type": "function"
    },
    {
      "inputs": [
        {
          "internalType": "uint256",
          "name": "_amount",
          "type": "uint256"
        }
      ],
      "name": "donate",
      "outputs": [],
      "stateMutability": "nonpayable",
      "type": "function"
    },
    {
      "inputs": [
        {
          "internalType": "uint256",
          "name": "_value",
          "type": "uint256"
        }
      ],
      "name": "distribute",
      "outputs": [],
      "stateMutability": "nonpayable",
      "type": "function"
    }
  ],
  "bytecode": "0x60806040526000600460006101000a81548160ff02191690831515021790555034801561002b57600080fd5b50604051610a66380380610a66833981810160405281019061004d91906100e9565b336000806101000a81548173ffffffffffffffffffffffffffffffffffffffff021916908373ffffffffffffffffffffffffffffffffffffffff16021790555080600160006101000a81548173ffffffffffffffffffffffffffffffffffffffff021916908373ffffffffffffffffffffffffffffffffffffffff16021790555050610164565b6000815190506100e38161014d565b92915050565b6000602082840312156100ff576100fe610148565b5b600061010d848285016100d4565b91505092915050565b600061012182610128565b9050919050565b600073ffffffffffffffffffffffffffffffffffffffff82169050919050565b600080fd5b61015681610116565b811461016157600080fd5b50565b6108f3806101736000396000f3fe608060405234801561001057600080fd5b50600436106100935760003560e01c806391c05b0b1161006657806391c05b0b14610110578063c39664091461012c578063d4b8399214610136578063f14faf6f14610154578063f62bf2de1461017057610093565b80632ddbd13a14610098578063521eb273146100b6578063753899e9146100d45780638da5cb5b146100f2575b600080fd5b6100a061018c565b6040516100ad91906106d0565b60405180910390f35b6100be610192565b6040516100cb919061061a565b60405180910390f35b6100dc6101b8565b6040516100e99190610635565b60405180910390f35b6100fa6101cb565b604051610107919061061a565b60405180910390f35b61012a60048036038101906101259190610534565b6101ef565b005b610134610299565b005b61013e6103a9565b60405161014b91906106d0565b60405180910390f35b61016e60048036038101906101699190610534565b6103af565b005b61018a60048036038101906101859190610534565b6103cb565b005b60025481565b600160009054906101000a900473ffffffffffffffffffffffffffffffffffffffff1681565b600460009054906101000a900460ff1681565b60008054906101000a900473ffffffffffffffffffffffffffffffffffffffff1681565b60008054906101000a900473ffffffffffffffffffffffffffffffffffffffff1673ffffffffffffffffffffffffffffffffffffffff163373ffffffffffffffffffffffffffffffffffffffff161461027d576040517f08c379a000000000000000000000000000000000000000000000000000000000815260040161027490610690565b60405180910390fd5b806002600082825461028f9190610752565b9250508190555050565b60008054906101000a900473ffffffffffffffffffffffffffffffffffffffff1673ffffffffffffffffffffffffffffffffffffffff163373ffffffffffffffffffffffffffffffffffffffff1614610327576040517f08c379a000000000000000000000000000000000000000000000000000000000815260040161031e90610690565b60405180910390fd5b60011515600460009054906101000a900460ff1615151461037d576040517f08c379a000000000000000000000000000000000000000000000000000000000815260040161037490610650565b60405180910390fd5b600460009054906101000a900460ff1615600460006101000a81548160ff021916908315150217905550565b60035481565b80600260008282546103c191906106fc565b9250508190555050565b60008054906101000a900473ffffffffffffffffffffffffffffffffffffffff1673ffffffffffffffffffffffffffffffffffffffff163373ffffffffffffffffffffffffffffffffffffffff1614610459576040517f08c379a000000000000000000000000000000000000000000000000000000000815260040161045090610690565b60405180910390fd5b60001515600460009054906101000a900460ff161515146104af576040517f08c379a00000000000000000000000000000000000000000000000000000000081526004016104a690610670565b60405180910390fd5b600081116104f2576040517f08c379a00000000000000000000000000000000000000000000000000000000081526004016104e9906106b0565b60405180910390fd5b6000600281905550806003819055506001600460006101000a81548160ff02191690831515021790555050565b60008135905061052e816108a6565b92915050565b60006020828403121561054a576105496107fd565b5b60006105588482850161051f565b91505092915050565b61056a81610786565b82525050565b61057981610798565b82525050565b600061058c6019836106eb565b915061059782610802565b602082019050919050565b60006105af6018836106eb565b91506105ba8261082b565b602082019050919050565b60006105d2600e836106eb565b91506105dd82610854565b602082019050919050565b60006105f56012836106eb565b91506106008261087d565b602082019050919050565b610614816107c4565b82525050565b600060208201905061062f6000830184610561565b92915050565b600060208201905061064a6000830184610570565b92915050565b600060208201905081810360008301526106698161057f565b9050919050565b60006020820190508181036000830152610689816105a2565b9050919050565b600060208201905081810360008301526106a9816105c5565b9050919050565b600060208201905081810360008301526106c9816105e8565b9050919050565b60006020820190506106e5600083018461060b565b92915050565b600082825260208201905092915050565b6000610707826107c4565b9150610712836107c4565b9250827fffffffffffffffffffffffffffffffffffffffffffffffffffffffffffffffff03821115610747576107466107ce565b5b828201905092915050565b600061075d826107c4565b9150610768836107c4565b92508282101561077b5761077a6107ce565b5b828203905092915050565b6000610791826107a4565b9050919050565b60008115159050919050565b600073ffffffffffffffffffffffffffffffffffffffff82169050919050565b6000819050919050565b7f4e487b7100000000000000000000000000000000000000000000000000000000600052601160045260246000fd5b600080fd5b7f416c72656164792066696e69736865642070726f6a6563742e00000000000000600082015250565b7f416c726561647920737461727465642070726f6a6563742e0000000000000000600082015250565b7f4163636573732044656e69656431000000000000000000000000000000000000600082015250565b7f54617267657420697320746f6f206c6f772e0000000000000000000000000000600082015250565b6108af816107c4565b81146108ba57600080fd5b5056fea26469706673582212200b815d4d8018fe4d1835a1d0554b8b9acf102c62d24e2ae0857a0b52993ed5a464736f6c63430008070033",
  "immutableReferences": {},
  "source": "// SPDX-License-Identifier: None\r\n\r\npragma solidity >=0.7.0 <0.9.0;\r\n\r\ncontract Project{\r\n    //structure\r\n    \r\n\r\n    //variables\r\n    address public owner;\r\n    address public wallet;\r\n    uint public total;\r\n    uint public target;\r\n    bool public alive=false;\r\n\r\n    //mapping\r\n    \r\n\r\n    //event\r\n    \r\n\r\n    //modifier\r\n    modifier onlyOwner{\r\n        require(msg.sender==owner,\"Access Denied1\"); //then, excute functions\r\n        _;\r\n    }\r\n\r\n    //constructor\r\n    constructor(address _wallet){\r\n        owner=msg.sender;\r\n        wallet=_wallet;\r\n    }\r\n\r\n    //functions\r\n    //start project\r\n    function startProject(uint _target) public onlyOwner{\r\n        //requires\r\n        require(alive==false,\"Already started project.\");\r\n        require(_target>0,\"Target is too low.\");\r\n        total=0;\r\n        target=_target;\r\n        alive=true;\r\n    }\r\n    \r\n    //end project\r\n    function endProject() public onlyOwner{\r\n        //requires\r\n        require(alive==true,\"Already finished project.\");\r\n\r\n        alive=!alive;\r\n    }\r\n    \r\n    function donate(uint _amount) public{\r\n        //requires\r\n        // require(alive==true,\"Finished project.\");\r\n        // require(_amount>0,\"Invalid Value\");\r\n\r\n        total+=_amount;\r\n    }\r\n\r\n    function distribute(uint _value) public  onlyOwner{\r\n        total-=_value;\r\n\r\n    }\r\n\r\n}",
  "sourcePath": "C:\\Users\\joons\\Desktop\\SOTY\\truffle\\contracts\\Project.sol",
  "compiler": {
    "name": "solc",
    "version": "0.8.7+commit.e28d00a7.Emscripten.clang"
  },
  "schemaVersion": "3.4.7",
  "updatedAt": "2022-05-04T02:56:31.791Z",
  "devdoc": {
    "kind": "dev",
    "methods": {},
    "version": 1
  },
  "userdoc": {
    "kind": "user",
    "methods": {},
    "version": 1
  }
}