{
  "contractName": "Project",
  "abi": [
    {
      "inputs": [],
      "stateMutability": "nonpayable",
      "type": "constructor"
    },
    {
      "inputs": [],
      "name": "alive",
      "outputs": [
        {
          "internalType": "bool",
          "name": "",
          "type": "bool"
        }
      ],
      "stateMutability": "view",
      "type": "function"
    },
    {
      "inputs": [],
      "name": "owner",
      "outputs": [
        {
          "internalType": "address",
          "name": "",
          "type": "address"
        }
      ],
      "stateMutability": "view",
      "type": "function"
    },
    {
      "inputs": [],
      "name": "target",
      "outputs": [
        {
          "internalType": "uint256",
          "name": "",
          "type": "uint256"
        }
      ],
      "stateMutability": "view",
      "type": "function"
    },
    {
      "inputs": [],
      "name": "total",
      "outputs": [
        {
          "internalType": "uint256",
          "name": "",
          "type": "uint256"
        }
      ],
      "stateMutability": "view",
      "type": "function"
    },
    {
      "inputs": [
        {
          "internalType": "uint256",
          "name": "_target",
          "type": "uint256"
        }
      ],
      "name": "startProject",
      "outputs": [],
      "stateMutability": "nonpayable",
      "type": "function"
    },
    {
      "inputs": [],
      "name": "endProject",
      "outputs": [],
      "stateMutability": "nonpayable",
      "type": "function"
    },
    {
      "inputs": [
        {
          "internalType": "uint256",
          "name": "_amount",
          "type": "uint256"
        }
      ],
      "name": "donate",
      "outputs": [],
      "stateMutability": "nonpayable",
      "type": "function"
    }
  ],
  "bytecode": "0x60806040526000600360006101000a81548160ff02191690831515021790555034801561002b57600080fd5b50336000806101000a81548173ffffffffffffffffffffffffffffffffffffffff021916908373ffffffffffffffffffffffffffffffffffffffff16021790555061079f8061007b6000396000f3fe608060405234801561001057600080fd5b506004361061007d5760003560e01c8063c39664091161005b578063c3966409146100dc578063d4b83992146100e6578063f14faf6f14610104578063f62bf2de146101205761007d565b80632ddbd13a14610082578063753899e9146100a05780638da5cb5b146100be575b600080fd5b61008a61013c565b60405161009791906105b0565b60405180910390f35b6100a8610142565b6040516100b59190610515565b60405180910390f35b6100c6610155565b6040516100d391906104fa565b60405180910390f35b6100e4610179565b005b6100ee610289565b6040516100fb91906105b0565b60405180910390f35b61011e60048036038101906101199190610414565b61028f565b005b61013a60048036038101906101359190610414565b6102ab565b005b60015481565b600360009054906101000a900460ff1681565b60008054906101000a900473ffffffffffffffffffffffffffffffffffffffff1681565b60008054906101000a900473ffffffffffffffffffffffffffffffffffffffff1673ffffffffffffffffffffffffffffffffffffffff163373ffffffffffffffffffffffffffffffffffffffff1614610207576040517f08c379a00000000000000000000000000000000000000000000000000000000081526004016101fe90610570565b60405180910390fd5b60011515600360009054906101000a900460ff1615151461025d576040517f08c379a000000000000000000000000000000000000000000000000000000000815260040161025490610530565b60405180910390fd5b600360009054906101000a900460ff1615600360006101000a81548160ff021916908315150217905550565b60025481565b80600160008282546102a191906105dc565b9250508190555050565b60008054906101000a900473ffffffffffffffffffffffffffffffffffffffff1673ffffffffffffffffffffffffffffffffffffffff163373ffffffffffffffffffffffffffffffffffffffff1614610339576040517f08c379a000000000000000000000000000000000000000000000000000000000815260040161033090610570565b60405180910390fd5b60001515600360009054906101000a900460ff1615151461038f576040517f08c379a000000000000000000000000000000000000000000000000000000000815260040161038690610550565b60405180910390fd5b600081116103d2576040517f08c379a00000000000000000000000000000000000000000000000000000000081526004016103c990610590565b60405180910390fd5b6000600181905550806002819055506001600360006101000a81548160ff02191690831515021790555050565b60008135905061040e81610752565b92915050565b60006020828403121561042a576104296106a9565b5b6000610438848285016103ff565b91505092915050565b61044a81610632565b82525050565b61045981610644565b82525050565b600061046c6019836105cb565b9150610477826106ae565b602082019050919050565b600061048f6018836105cb565b915061049a826106d7565b602082019050919050565b60006104b2600d836105cb565b91506104bd82610700565b602082019050919050565b60006104d56012836105cb565b91506104e082610729565b602082019050919050565b6104f481610670565b82525050565b600060208201905061050f6000830184610441565b92915050565b600060208201905061052a6000830184610450565b92915050565b600060208201905081810360008301526105498161045f565b9050919050565b6000602082019050818103600083015261056981610482565b9050919050565b60006020820190508181036000830152610589816104a5565b9050919050565b600060208201905081810360008301526105a9816104c8565b9050919050565b60006020820190506105c560008301846104eb565b92915050565b600082825260208201905092915050565b60006105e782610670565b91506105f283610670565b9250827fffffffffffffffffffffffffffffffffffffffffffffffffffffffffffffffff038211156106275761062661067a565b5b828201905092915050565b600061063d82610650565b9050919050565b60008115159050919050565b600073ffffffffffffffffffffffffffffffffffffffff82169050919050565b6000819050919050565b7f4e487b7100000000000000000000000000000000000000000000000000000000600052601160045260246000fd5b600080fd5b7f416c72656164792066696e69736865642070726f6a6563742e00000000000000600082015250565b7f416c726561647920737461727465642070726f6a6563742e0000000000000000600082015250565b7f4163636573732044656e69656400000000000000000000000000000000000000600082015250565b7f54617267657420697320746f6f206c6f772e0000000000000000000000000000600082015250565b61075b81610670565b811461076657600080fd5b5056fea26469706673582212206ba894abeeebf0d09b06dff38f8cccac3a8e9f03a69ec172dc5056dd7e56ddf064736f6c63430008070033",
  "immutableReferences": {},
  "source": "// SPDX-License-Identifier: None\r\n\r\npragma solidity >=0.7.0 <0.9.0;\r\n\r\ncontract Project{\r\n    //structure\r\n    \r\n\r\n    //variables\r\n    address public owner;\r\n    uint public total;\r\n    uint public target;\r\n    bool public alive=false;\r\n\r\n    //mapping\r\n    \r\n\r\n    //event\r\n    \r\n\r\n    //modifier\r\n    modifier onlyOwner{\r\n        require(msg.sender==owner,\"Access Denied\"); //then, excute functions\r\n        _;\r\n    }\r\n\r\n    //constructor\r\n    constructor(){\r\n        owner=msg.sender;\r\n    }\r\n\r\n    //functions\r\n    //start project\r\n    function startProject(uint _target) public onlyOwner{\r\n        //requires\r\n        require(alive==false,\"Already started project.\");\r\n        require(_target>0,\"Target is too low.\");\r\n        total=0;\r\n        target=_target;\r\n        alive=true;\r\n    }\r\n    \r\n    //end project\r\n    function endProject() public onlyOwner{\r\n        //requires\r\n        require(alive==true,\"Already finished project.\");\r\n\r\n        alive=!alive;\r\n    }\r\n    \r\n    function donate(uint _amount) public{\r\n        //requires\r\n        // require(alive==true,\"Finished project.\");\r\n        // require(_amount>0,\"Invalid Value\");\r\n\r\n        total+=_amount;\r\n    }\r\n\r\n}",
  "sourcePath": "C:\\Users\\joons\\Desktop\\SOTY\\truffle\\contracts\\Project.sol",
  "compiler": {
    "name": "solc",
    "version": "0.8.7+commit.e28d00a7.Emscripten.clang"
  },
  "schemaVersion": "3.4.7",
  "updatedAt": "2022-04-30T02:07:30.104Z",
  "devdoc": {
    "kind": "dev",
    "methods": {},
    "version": 1
  },
  "userdoc": {
    "kind": "user",
    "methods": {},
    "version": 1
  }
}